:100000000C9434000C943E000C943E000C943E0082
:100010000C943E000C943E000C943E000C943E0068
:100020000C943E000C943E000C943E000C943E0058
:100030000C943E000C943E000C943E000C943E0048
:100040000C943E000C943E000C943E000C943E0038
:100050000C943E000C943E000C943E000C943E0028
:100060000C943E000C943E0011241FBECFEFD8E04C
:10007000DEBFCDBF0E9440000C9465000C940000D0
:1000800080E284B983EE8AB98CE18BB951E010C06B
:1000900044FB222720F930E045B1C901880F991FA0
:1000A00082959295907F9827807F9827842B85B999
:1000B00099B189B149B192FDEBCF86958695869528
:0E00C0008527282F217030E0E7CFF894FFCF7E
:00000001FF
